{
  "contractName": "SystemeVote",
  "abi": [
    {
      "anonymous": false,
      "inputs": [
        {
          "indexed": true,
          "internalType": "address",
          "name": "previousOwner",
          "type": "address"
        },
        {
          "indexed": true,
          "internalType": "address",
          "name": "newOwner",
          "type": "address"
        }
      ],
      "name": "OwnershipTransferred",
      "type": "event"
    },
    {
      "anonymous": false,
      "inputs": [
        {
          "indexed": false,
          "internalType": "uint256",
          "name": "proposalId",
          "type": "uint256"
        }
      ],
      "name": "ProposalRegistered",
      "type": "event"
    },
    {
      "anonymous": false,
      "inputs": [],
      "name": "ProposalsRegistrationEnded",
      "type": "event"
    },
    {
      "anonymous": false,
      "inputs": [],
      "name": "ProposalsRegistrationStarted",
      "type": "event"
    },
    {
      "anonymous": false,
      "inputs": [
        {
          "indexed": false,
          "internalType": "address",
          "name": "voter",
          "type": "address"
        },
        {
          "indexed": false,
          "internalType": "uint256",
          "name": "proposalId",
          "type": "uint256"
        }
      ],
      "name": "Voted",
      "type": "event"
    },
    {
      "anonymous": false,
      "inputs": [
        {
          "indexed": false,
          "internalType": "address",
          "name": "voterAddress",
          "type": "address"
        }
      ],
      "name": "VoterRegistered",
      "type": "event"
    },
    {
      "anonymous": false,
      "inputs": [],
      "name": "VotesTallied",
      "type": "event"
    },
    {
      "anonymous": false,
      "inputs": [],
      "name": "VotingSessionEnded",
      "type": "event"
    },
    {
      "anonymous": false,
      "inputs": [],
      "name": "VotingSessionStarted",
      "type": "event"
    },
    {
      "anonymous": false,
      "inputs": [
        {
          "indexed": false,
          "internalType": "enum SystemeVoteWorkflow.WorkflowStatus",
          "name": "previousStatus",
          "type": "uint8"
        },
        {
          "indexed": false,
          "internalType": "enum SystemeVoteWorkflow.WorkflowStatus",
          "name": "newStatus",
          "type": "uint8"
        }
      ],
      "name": "WorkflowStatusChange",
      "type": "event"
    },
    {
      "inputs": [],
      "name": "closingProposalSession",
      "outputs": [],
      "stateMutability": "nonpayable",
      "type": "function"
    },
    {
      "inputs": [],
      "name": "closingVoting",
      "outputs": [],
      "stateMutability": "nonpayable",
      "type": "function"
    },
    {
      "inputs": [
        {
          "internalType": "uint256",
          "name": "",
          "type": "uint256"
        }
      ],
      "name": "idsProposals",
      "outputs": [
        {
          "internalType": "string",
          "name": "description",
          "type": "string"
        },
        {
          "internalType": "uint256",
          "name": "voteCount",
          "type": "uint256"
        }
      ],
      "stateMutability": "view",
      "type": "function",
      "constant": true
    },
    {
      "inputs": [
        {
          "internalType": "string",
          "name": "",
          "type": "string"
        }
      ],
      "name": "listProposals",
      "outputs": [
        {
          "internalType": "string",
          "name": "description",
          "type": "string"
        },
        {
          "internalType": "uint256",
          "name": "voteCount",
          "type": "uint256"
        }
      ],
      "stateMutability": "view",
      "type": "function",
      "constant": true
    },
    {
      "inputs": [],
      "name": "openingProposalSession",
      "outputs": [],
      "stateMutability": "nonpayable",
      "type": "function"
    },
    {
      "inputs": [],
      "name": "openingVoting",
      "outputs": [],
      "stateMutability": "nonpayable",
      "type": "function"
    },
    {
      "inputs": [],
      "name": "owner",
      "outputs": [
        {
          "internalType": "address",
          "name": "",
          "type": "address"
        }
      ],
      "stateMutability": "view",
      "type": "function",
      "constant": true
    },
    {
      "inputs": [],
      "name": "renounceOwnership",
      "outputs": [],
      "stateMutability": "nonpayable",
      "type": "function"
    },
    {
      "inputs": [
        {
          "internalType": "address",
          "name": "newOwner",
          "type": "address"
        }
      ],
      "name": "transferOwnership",
      "outputs": [],
      "stateMutability": "nonpayable",
      "type": "function"
    },
    {
      "inputs": [
        {
          "internalType": "address",
          "name": "",
          "type": "address"
        }
      ],
      "name": "whiteList",
      "outputs": [
        {
          "internalType": "bool",
          "name": "isRegistered",
          "type": "bool"
        },
        {
          "internalType": "bool",
          "name": "hasVoted",
          "type": "bool"
        },
        {
          "internalType": "uint256",
          "name": "votedProposalId",
          "type": "uint256"
        }
      ],
      "stateMutability": "view",
      "type": "function",
      "constant": true
    },
    {
      "inputs": [],
      "name": "workflowStatus",
      "outputs": [
        {
          "internalType": "enum SystemeVoteWorkflow.WorkflowStatus",
          "name": "",
          "type": "uint8"
        }
      ],
      "stateMutability": "view",
      "type": "function",
      "constant": true
    },
    {
      "inputs": [
        {
          "internalType": "address",
          "name": "_voterAddress",
          "type": "address"
        }
      ],
      "name": "whiteListed",
      "outputs": [],
      "stateMutability": "nonpayable",
      "type": "function"
    },
    {
      "inputs": [
        {
          "internalType": "string",
          "name": "_proposal",
          "type": "string"
        }
      ],
      "name": "propositions",
      "outputs": [],
      "stateMutability": "nonpayable",
      "type": "function"
    },
    {
      "inputs": [
        {
          "internalType": "uint256",
          "name": "_idChooseProposal",
          "type": "uint256"
        }
      ],
      "name": "vote",
      "outputs": [],
      "stateMutability": "nonpayable",
      "type": "function"
    },
    {
      "inputs": [],
      "name": "comptageVotes",
      "outputs": [],
      "stateMutability": "nonpayable",
      "type": "function"
    },
    {
      "inputs": [],
      "name": "getWinner",
      "outputs": [
        {
          "components": [
            {
              "internalType": "string",
              "name": "description",
              "type": "string"
            },
            {
              "internalType": "uint256",
              "name": "voteCount",
              "type": "uint256"
            }
          ],
          "internalType": "struct SystemeVote.Proposal",
          "name": "",
          "type": "tuple"
        }
      ],
      "stateMutability": "view",
      "type": "function",
      "constant": true
    },
    {
      "inputs": [
        {
          "internalType": "address",
          "name": "_address",
          "type": "address"
        }
      ],
      "name": "getVote",
      "outputs": [
        {
          "internalType": "uint256",
          "name": "",
          "type": "uint256"
        }
      ],
      "stateMutability": "view",
      "type": "function",
      "constant": true
    }
  ],
  "bytecode": "0x608060405234801561001057600080fd5b5060006100216100c460201b60201c565b9050806000806101000a81548173ffffffffffffffffffffffffffffffffffffffff021916908373ffffffffffffffffffffffffffffffffffffffff1602179055508073ffffffffffffffffffffffffffffffffffffffff16600073ffffffffffffffffffffffffffffffffffffffff167f8be0079c531659141344cd1fd0a4f28419497f9722a3daafe3b4186f6b6457e060405160405180910390a3506100cc565b600033905090565b61280a806100db6000396000f3fe608060405234801561001057600080fd5b506004361061010b5760003560e01c80639f13824a116100a2578063cdafc95c11610071578063cdafc95c14610272578063e1e4416b1461028e578063f2fde38b14610298578063fa0fca84146102b4578063fa213ac5146102d05761010b565b80639f13824a1461020f578063a077ae2814610219578063a1edffa21461024a578063c23ce127146102685761010b565b8063715018a6116100de578063715018a6146101995780638d337b81146101a35780638da5cb5b146101d35780638e7ea5b2146101f15761010b565b80630121b93f1461011057806335c9c3e91461012c578063372c12b1146101365780635280a4dd14610168575b600080fd5b61012a600480360381019061012591906120ac565b6102da565b005b61013461062f565b005b610150600480360381019061014b9190612042565b610832565b60405161015f9392919061245c565b60405180910390f35b610182600480360381019061017d919061206b565b610876565b6040516101909291906124ae565b60405180910390f35b6101a1610948565b005b6101bd60048036038101906101b89190612042565b610ab5565b6040516101ca91906125c0565b60405180910390f35b6101db610c2d565b6040516101e89190612418565b60405180910390f35b6101f9610c56565b604051610206919061259e565b60405180910390f35b610217610dcc565b005b610233600480360381019061022e91906120ac565b610fcf565b6040516102419291906124ae565b60405180910390f35b61025261108b565b60405161025f9190612493565b60405180910390f35b61027061109e565b005b61028c6004803603810190610287919061206b565b6111f4565b005b610296611478565b005b6102b260048036038101906102ad9190612042565b61167b565b005b6102ce60048036038101906102c99190612042565b61186d565b005b6102d8611ade565b005b60011515600360003373ffffffffffffffffffffffffffffffffffffffff1673ffffffffffffffffffffffffffffffffffffffff16815260200190815260200160002060000160009054906101000a900460ff16151514610370576040517f08c379a0000000000000000000000000000000000000000000000000000000008152600401610367906124de565b60405180910390fd5b600380600581111561037e57fe5b600060149054906101000a900460ff16600581111561039957fe5b1461040c576040517f08c379a000000000000000000000000000000000000000000000000000000000815260040180806020018281038252601f8152602001807f796f7520617265206e6f7420696e20746865207269676874207374617475730081525060200191505060405180910390fd5b600060056000848152602001908152602001600020600001805460018160011615610100020316600290049050141561047a576040517f08c379a00000000000000000000000000000000000000000000000000000000081526004016104719061257e565b60405180910390fd5b600360003373ffffffffffffffffffffffffffffffffffffffff1673ffffffffffffffffffffffffffffffffffffffff16815260200190815260200160002060000160019054906101000a900460ff161561050a576040517f08c379a0000000000000000000000000000000000000000000000000000000008152600401610501906124fe565b60405180910390fd5b604051806060016040528060011515815260200160011515815260200183815250600360003373ffffffffffffffffffffffffffffffffffffffff1673ffffffffffffffffffffffffffffffffffffffff16815260200190815260200160002060008201518160000160006101000a81548160ff02191690831515021790555060208201518160000160016101000a81548160ff02191690831515021790555060408201518160010155905050600060016005600085815260200190815260200160002060010160008282540192505081905590506001548111156105f157826001819055505b7f4d99b957a2bc29a30ebd96a7be8e68fe50a3c701db28a91436490b7d53870ca43384604051610622929190612433565b60405180910390a1505050565b610637611ce0565b73ffffffffffffffffffffffffffffffffffffffff16610655610c2d565b73ffffffffffffffffffffffffffffffffffffffff16146106de576040517f08c379a00000000000000000000000000000000000000000000000000000000081526004018080602001828103825260208152602001807f4f776e61626c653a2063616c6c6572206973206e6f7420746865206f776e657281525060200191505060405180910390fd5b60018060058111156106ec57fe5b600060149054906101000a900460ff16600581111561070757fe5b1461077a576040517f08c379a000000000000000000000000000000000000000000000000000000000815260040180806020018281038252601f8152602001807f796f7520617265206e6f7420696e20746865207269676874207374617475730081525060200191505060405180910390fd5b6002600060146101000a81548160ff0219169083600581111561079957fe5b02179055507f240cb87b2e4df4c318e72bd714d45a9cad60249e883ff56b1fffd83a4595a8fa60405160405180910390a17f0a97a4ee45751e2abf3e4fc8946939630b11b371ea8ae39ccdc3056e98f5cc3f6001600060149054906101000a900460ff166040518083600581111561080d57fe5b815260200182600581111561081e57fe5b81526020019250505060405180910390a150565b60036020528060005260406000206000915090508060000160009054906101000a900460ff16908060000160019054906101000a900460ff16908060010154905083565b600481805160208101820180518482526020830160208501208183528095505050505050600091509050806000018054600181600116156101000203166002900480601f0160208091040260200160405190810160405280929190818152602001828054600181600116156101000203166002900480156109385780601f1061090d57610100808354040283529160200191610938565b820191906000526020600020905b81548152906001019060200180831161091b57829003601f168201915b5050505050908060010154905082565b610950611ce0565b73ffffffffffffffffffffffffffffffffffffffff1661096e610c2d565b73ffffffffffffffffffffffffffffffffffffffff16146109f7576040517f08c379a00000000000000000000000000000000000000000000000000000000081526004018080602001828103825260208152602001807f4f776e61626c653a2063616c6c6572206973206e6f7420746865206f776e657281525060200191505060405180910390fd5b600073ffffffffffffffffffffffffffffffffffffffff1660008054906101000a900473ffffffffffffffffffffffffffffffffffffffff1673ffffffffffffffffffffffffffffffffffffffff167f8be0079c531659141344cd1fd0a4f28419497f9722a3daafe3b4186f6b6457e060405160405180910390a360008060006101000a81548173ffffffffffffffffffffffffffffffffffffffff021916908373ffffffffffffffffffffffffffffffffffffffff160217905550565b60006005806005811115610ac557fe5b600060149054906101000a900460ff166005811115610ae057fe5b14610b53576040517f08c379a000000000000000000000000000000000000000000000000000000000815260040180806020018281038252601f8152602001807f796f7520617265206e6f7420696e20746865207269676874207374617475730081525060200191505060405180910390fd5b600360008473ffffffffffffffffffffffffffffffffffffffff1673ffffffffffffffffffffffffffffffffffffffff16815260200190815260200160002060000160009054906101000a900460ff16610be2576040517f08c379a0000000000000000000000000000000000000000000000000000000008152600401610bd99061255e565b60405180910390fd5b600360008473ffffffffffffffffffffffffffffffffffffffff1673ffffffffffffffffffffffffffffffffffffffff16815260200190815260200160002060010154915050919050565b60008060009054906101000a900473ffffffffffffffffffffffffffffffffffffffff16905090565b610c5e611eeb565b6005806005811115610c6c57fe5b600060149054906101000a900460ff166005811115610c8757fe5b14610cfa576040517f08c379a000000000000000000000000000000000000000000000000000000000815260040180806020018281038252601f8152602001807f796f7520617265206e6f7420696e20746865207269676874207374617475730081525060200191505060405180910390fd5b600560006001548152602001908152602001600020604051806040016040529081600082018054600181600116156101000203166002900480601f016020809104026020016040519081016040528092919081815260200182805460018160011615610100020316600290048015610db35780601f10610d8857610100808354040283529160200191610db3565b820191906000526020600020905b815481529060010190602001808311610d9657829003601f168201915b5050505050815260200160018201548152505091505090565b610dd4611ce0565b73ffffffffffffffffffffffffffffffffffffffff16610df2610c2d565b73ffffffffffffffffffffffffffffffffffffffff1614610e7b576040517f08c379a00000000000000000000000000000000000000000000000000000000081526004018080602001828103825260208152602001807f4f776e61626c653a2063616c6c6572206973206e6f7420746865206f776e657281525060200191505060405180910390fd5b6003806005811115610e8957fe5b600060149054906101000a900460ff166005811115610ea457fe5b14610f17576040517f08c379a000000000000000000000000000000000000000000000000000000000815260040180806020018281038252601f8152602001807f796f7520617265206e6f7420696e20746865207269676874207374617475730081525060200191505060405180910390fd5b6004600060146101000a81548160ff02191690836005811115610f3657fe5b02179055507fc379d349a6301baf50fb2f98d829f4ae10b1cdb7c66f4e4d8117302df7b8cd4c60405160405180910390a17f0a97a4ee45751e2abf3e4fc8946939630b11b371ea8ae39ccdc3056e98f5cc3f6003600060149054906101000a900460ff1660405180836005811115610faa57fe5b8152602001826005811115610fbb57fe5b81526020019250505060405180910390a150565b6005602052806000526040600020600091509050806000018054600181600116156101000203166002900480601f01602080910402602001604051908101604052809291908181526020018280546001816001161561010002031660029004801561107b5780601f106110505761010080835404028352916020019161107b565b820191906000526020600020905b81548152906001019060200180831161105e57829003601f168201915b5050505050908060010154905082565b600060149054906101000a900460ff1681565b6110a6611ce0565b73ffffffffffffffffffffffffffffffffffffffff166110c4610c2d565b73ffffffffffffffffffffffffffffffffffffffff161461114d576040517f08c379a00000000000000000000000000000000000000000000000000000000081526004018080602001828103825260208152602001807f4f776e61626c653a2063616c6c6572206973206e6f7420746865206f776e657281525060200191505060405180910390fd5b600480600581111561115b57fe5b600060149054906101000a900460ff16600581111561117657fe5b146111e9576040517f08c379a000000000000000000000000000000000000000000000000000000000815260040180806020018281038252601f8152602001807f796f7520617265206e6f7420696e20746865207269676874207374617475730081525060200191505060405180910390fd5b6111f1611ce8565b50565b60011515600360003373ffffffffffffffffffffffffffffffffffffffff1673ffffffffffffffffffffffffffffffffffffffff16815260200190815260200160002060000160009054906101000a900460ff1615151461128a576040517f08c379a0000000000000000000000000000000000000000000000000000000008152600401611281906124de565b60405180910390fd5b600180600581111561129857fe5b600060149054906101000a900460ff1660058111156112b357fe5b14611326576040517f08c379a000000000000000000000000000000000000000000000000000000000815260040180806020018281038252601f8152602001807f796f7520617265206e6f7420696e20746865207269676874207374617475730081525060200191505060405180910390fd5b60006004836040516113389190612401565b90815260200160405180910390206000018054600181600116156101000203166002900490501461139e576040517f08c379a00000000000000000000000000000000000000000000000000000000081526004016113959061251e565b60405180910390fd5b816004836040516113af9190612401565b908152602001604051809103902060000190805190602001906113d3929190611f05565b5060405180604001604052808381526020016000815250600560006002548152602001908152602001600020600082015181600001908051906020019061141b929190611f05565b50602082015181600101559050507f92e393e9b54e2f801d3ea4beb0c5e71a21cc34a5d34b77d0fb8a3aa1650dc18f60025460405161145a91906125c0565b60405180910390a16002600081548092919060010191905055505050565b611480611ce0565b73ffffffffffffffffffffffffffffffffffffffff1661149e610c2d565b73ffffffffffffffffffffffffffffffffffffffff1614611527576040517f08c379a00000000000000000000000000000000000000000000000000000000081526004018080602001828103825260208152602001807f4f776e61626c653a2063616c6c6572206973206e6f7420746865206f776e657281525060200191505060405180910390fd5b600280600581111561153557fe5b600060149054906101000a900460ff16600581111561155057fe5b146115c3576040517f08c379a000000000000000000000000000000000000000000000000000000000815260040180806020018281038252601f8152602001807f796f7520617265206e6f7420696e20746865207269676874207374617475730081525060200191505060405180910390fd5b6003600060146101000a81548160ff021916908360058111156115e257fe5b02179055507f1b8e19a458c1bcd88553332c518cc5c4e2d5793e712ee766d4f1c14f672ef1f560405160405180910390a17f0a97a4ee45751e2abf3e4fc8946939630b11b371ea8ae39ccdc3056e98f5cc3f6002600060149054906101000a900460ff166040518083600581111561165657fe5b815260200182600581111561166757fe5b81526020019250505060405180910390a150565b611683611ce0565b73ffffffffffffffffffffffffffffffffffffffff166116a1610c2d565b73ffffffffffffffffffffffffffffffffffffffff161461172a576040517f08c379a00000000000000000000000000000000000000000000000000000000081526004018080602001828103825260208152602001807f4f776e61626c653a2063616c6c6572206973206e6f7420746865206f776e657281525060200191505060405180910390fd5b600073ffffffffffffffffffffffffffffffffffffffff168173ffffffffffffffffffffffffffffffffffffffff1614156117b0576040517f08c379a00000000000000000000000000000000000000000000000000000000081526004018080602001828103825260268152602001806127af6026913960400191505060405180910390fd5b8073ffffffffffffffffffffffffffffffffffffffff1660008054906101000a900473ffffffffffffffffffffffffffffffffffffffff1673ffffffffffffffffffffffffffffffffffffffff167f8be0079c531659141344cd1fd0a4f28419497f9722a3daafe3b4186f6b6457e060405160405180910390a3806000806101000a81548173ffffffffffffffffffffffffffffffffffffffff021916908373ffffffffffffffffffffffffffffffffffffffff16021790555050565b611875611ce0565b73ffffffffffffffffffffffffffffffffffffffff16611893610c2d565b73ffffffffffffffffffffffffffffffffffffffff161461191c576040517f08c379a00000000000000000000000000000000000000000000000000000000081526004018080602001828103825260208152602001807f4f776e61626c653a2063616c6c6572206973206e6f7420746865206f776e657281525060200191505060405180910390fd5b600080600581111561192a57fe5b600060149054906101000a900460ff16600581111561194557fe5b146119b8576040517f08c379a000000000000000000000000000000000000000000000000000000000815260040180806020018281038252601f8152602001807f796f7520617265206e6f7420696e20746865207269676874207374617475730081525060200191505060405180910390fd5b600360008373ffffffffffffffffffffffffffffffffffffffff1673ffffffffffffffffffffffffffffffffffffffff16815260200190815260200160002060000160009054906101000a900460ff1615611a48576040517f08c379a0000000000000000000000000000000000000000000000000000000008152600401611a3f9061253e565b60405180910390fd5b6001600360008473ffffffffffffffffffffffffffffffffffffffff1673ffffffffffffffffffffffffffffffffffffffff16815260200190815260200160002060000160006101000a81548160ff0219169083151502179055507fb6be2187d059cc2a55fe29e0e503b566e1e0f8c8780096e185429350acffd3dd82604051611ad29190612418565b60405180910390a15050565b611ae6611ce0565b73ffffffffffffffffffffffffffffffffffffffff16611b04610c2d565b73ffffffffffffffffffffffffffffffffffffffff1614611b8d576040517f08c379a00000000000000000000000000000000000000000000000000000000081526004018080602001828103825260208152602001807f4f776e61626c653a2063616c6c6572206973206e6f7420746865206f776e657281525060200191505060405180910390fd5b6000806005811115611b9b57fe5b600060149054906101000a900460ff166005811115611bb657fe5b14611c29576040517f08c379a000000000000000000000000000000000000000000000000000000000815260040180806020018281038252601f8152602001807f796f7520617265206e6f7420696e20746865207269676874207374617475730081525060200191505060405180910390fd5b6001600060146101000a81548160ff02191690836005811115611c4857fe5b02179055507f344c25562921d075a298d34b6dd1fd00d36ff293974539dfd4a8c625d9f0064c60405160405180910390a17f0a97a4ee45751e2abf3e4fc8946939630b11b371ea8ae39ccdc3056e98f5cc3f60008060149054906101000a900460ff1660405180836005811115611cbb57fe5b8152602001826005811115611ccc57fe5b81526020019250505060405180910390a150565b600033905090565b611cf0611ce0565b73ffffffffffffffffffffffffffffffffffffffff16611d0e610c2d565b73ffffffffffffffffffffffffffffffffffffffff1614611d97576040517f08c379a00000000000000000000000000000000000000000000000000000000081526004018080602001828103825260208152602001807f4f776e61626c653a2063616c6c6572206973206e6f7420746865206f776e657281525060200191505060405180910390fd5b6004806005811115611da557fe5b600060149054906101000a900460ff166005811115611dc057fe5b14611e33576040517f08c379a000000000000000000000000000000000000000000000000000000000815260040180806020018281038252601f8152602001807f796f7520617265206e6f7420696e20746865207269676874207374617475730081525060200191505060405180910390fd5b6005600060146101000a81548160ff02191690836005811115611e5257fe5b02179055507f0e5e95ff8725ab3e7a4b6b59998a4c344c2aa8d1485f5e60cb7f337768e6134760405160405180910390a17f0a97a4ee45751e2abf3e4fc8946939630b11b371ea8ae39ccdc3056e98f5cc3f6004600060149054906101000a900460ff1660405180836005811115611ec657fe5b8152602001826005811115611ed757fe5b81526020019250505060405180910390a150565b604051806040016040528060608152602001600081525090565b828054600181600116156101000203166002900490600052602060002090601f016020900481019282611f3b5760008555611f82565b82601f10611f5457805160ff1916838001178555611f82565b82800160010185558215611f82579182015b82811115611f81578251825591602001919060010190611f66565b5b509050611f8f9190611f93565b5090565b5b80821115611fac576000816000905550600101611f94565b5090565b6000611fc3611fbe8461260c565b6125db565b905082815260208101848484011115611fdb57600080fd5b611fe6848285612717565b509392505050565b600081359050611ffd81612780565b92915050565b600082601f83011261201457600080fd5b8135612024848260208601611fb0565b91505092915050565b60008135905061203c81612797565b92915050565b60006020828403121561205457600080fd5b600061206284828501611fee565b91505092915050565b60006020828403121561207d57600080fd5b600082013567ffffffffffffffff81111561209757600080fd5b6120a384828501612003565b91505092915050565b6000602082840312156120be57600080fd5b60006120cc8482850161202d565b91505092915050565b6120de816126cf565b82525050565b6120ed81612674565b82525050565b6120fc81612686565b82525050565b61210b816126e1565b82525050565b600061211c8261263c565b6121268185612647565b9350612136818560208601612726565b61213f8161275b565b840191505092915050565b60006121558261263c565b61215f8185612658565b935061216f818560208601612726565b6121788161275b565b840191505092915050565b600061218e8261263c565b6121988185612669565b93506121a8818560208601612726565b80840191505092915050565b60006121c1602883612658565b91507f796f7520617265206e6f742072656769737465726564206f6e2074686520766f60008301527f746572206c6973740000000000000000000000000000000000000000000000006020830152604082019050919050565b6000612227601483612658565b91507f596f7527766520766f74656420616c72656164790000000000000000000000006000830152602082019050919050565b6000612267602883612658565b91507f546869732070726f706f73616c2068617320616c7265616479206265656e207360008301527f75626d69747465640000000000000000000000000000000000000000000000006020830152604082019050919050565b60006122cd601683612658565b91507f566f74657220616c7265647920726567697374726564000000000000000000006000830152602082019050919050565b600061230d602483612658565b91507f5468697320706572736f6e206973206e6f74206f6e207468652077686974656c60008301527f69737420000000000000000000000000000000000000000000000000000000006020830152604082019050919050565b6000612373601c83612658565b91507f546869732070726f706f73616c20646f65736e277420657869737420000000006000830152602082019050919050565b600060408301600083015184820360008601526123c38282612111565b91505060208301516123d860208601826123e3565b508091505092915050565b6123ec816126c5565b82525050565b6123fb816126c5565b82525050565b600061240d8284612183565b915081905092915050565b600060208201905061242d60008301846120e4565b92915050565b600060408201905061244860008301856120d5565b61245560208301846123f2565b9392505050565b600060608201905061247160008301866120f3565b61247e60208301856120f3565b61248b60408301846123f2565b949350505050565b60006020820190506124a86000830184612102565b92915050565b600060408201905081810360008301526124c8818561214a565b90506124d760208301846123f2565b9392505050565b600060208201905081810360008301526124f7816121b4565b9050919050565b600060208201905081810360008301526125178161221a565b9050919050565b600060208201905081810360008301526125378161225a565b9050919050565b60006020820190508181036000830152612557816122c0565b9050919050565b6000602082019050818103600083015261257781612300565b9050919050565b6000602082019050818103600083015261259781612366565b9050919050565b600060208201905081810360008301526125b881846123a6565b905092915050565b60006020820190506125d560008301846123f2565b92915050565b6000604051905081810181811067ffffffffffffffff8211171561260257612601612759565b5b8060405250919050565b600067ffffffffffffffff82111561262757612626612759565b5b601f19601f8301169050602081019050919050565b600081519050919050565b600082825260208201905092915050565b600082825260208201905092915050565b600081905092915050565b600061267f826126a5565b9050919050565b60008115159050919050565b60008190506126a08261276c565b919050565b600073ffffffffffffffffffffffffffffffffffffffff82169050919050565b6000819050919050565b60006126da826126f3565b9050919050565b60006126ec82612692565b9050919050565b60006126fe82612705565b9050919050565b6000612710826126a5565b9050919050565b82818337600083830152505050565b60005b83811015612744578082015181840152602081019050612729565b83811115612753576000848401525b50505050565bfe5b6000601f19601f8301169050919050565b6006811061277d5761277c612759565b5b50565b61278981612674565b811461279457600080fd5b50565b6127a0816126c5565b81146127ab57600080fd5b5056fe4f776e61626c653a206e6577206f776e657220697320746865207a65726f2061646472657373a264697066735822122039b4c608894bb849a6fde83cee50a2aa9a445d630a1be6678b365043addb27db64736f6c63430007060033",
  "immutableReferences": {},
  "source": "// SPDX-License-Identifier: GPL-3.0\r\n\r\n/**\r\n * @title systemeVote\r\n * @dev Le contrat permet d'enregistrer une liste de voter, repurerer leurs propositions,\r\n * etablir un vote pour la meilleure proposition et definir la proposition gagnante. Celle \r\n * pour laquelle le plus de gens ont vote. Le contrat systemeVoteWorflow est necessaire\r\n * pour le bon fonctionnement de ce contrat. Comme son nom l'indique, il gere tout le Workflow.\r\n * */\r\n\r\nimport \"./systemeVoteWorkflow.sol\";\r\n\r\npragma solidity 0.7.6;\r\npragma abicoder v2;\r\n \r\ncontract SystemeVote is SystemeVoteWorkflow {\r\n\r\n    uint winningProposalId;\r\n    uint idProposal;\r\n\r\n    struct Voter {\r\n        bool isRegistered;\r\n        bool hasVoted;\r\n        uint votedProposalId;\r\n    }\r\n        \r\n    struct Proposal {\r\n        string description;\r\n        uint voteCount;\r\n    }    \r\n        \r\n    mapping (address => Voter) public whiteList;\r\n    mapping (string => Proposal) public listProposals;\r\n    mapping (uint => Proposal) public idsProposals;\r\n    \r\n\r\n    modifier registred (){\r\n           \r\n           require (whiteList[msg.sender].isRegistered == true, \"you are not registered on the voter list\");\r\n           _;\r\n       }\r\n       \r\n\r\n    ///@dev owner adding whitelist address\r\n    function whiteListed (address _voterAddress) public onlyOwner rightStatus(WorkflowStatus.RegisteringVoters){ \r\n        \r\n        require (!whiteList[_voterAddress].isRegistered, \"Voter alredy registred\");\r\n        whiteList[_voterAddress].isRegistered = true;\r\n        emit VoterRegistered(_voterAddress);\r\n    }\r\n    \r\n    ///@dev whiteListed addresses making proposals\r\n    function propositions (string memory _proposal) public registred rightStatus(WorkflowStatus.ProposalsRegistrationStarted) { \r\n        \r\n        require (bytes(listProposals[_proposal].description).length == 0, \"This proposal has already been submitted\"); \r\n        listProposals[_proposal].description = _proposal;\r\n        idsProposals[idProposal] = Proposal(_proposal, 0);\r\n        emit ProposalRegistered (idProposal);\r\n        idProposal ++;\r\n    }\r\n    \r\n    ///@dev whiteListed addresses make a unique vote and at the same time the program is counting the winning proposal    \r\n    function vote (uint _idChooseProposal) public registred rightStatus( WorkflowStatus.VotingSessionStarted){\r\n        \r\n        require(bytes(idsProposals[_idChooseProposal].description).length != 0, \"This proposal doesn't exist \");\r\n        require(!whiteList[msg.sender].hasVoted, \"You've voted already\");\r\n        whiteList[msg.sender] = Voter( true, true, _idChooseProposal);\r\n        uint currentProposalVotes = idsProposals[_idChooseProposal].voteCount += 1;\r\n        \r\n        if (currentProposalVotes > winningProposalId) {\r\n            winningProposalId = _idChooseProposal;\r\n        }\r\n        emit Voted (msg.sender, _idChooseProposal);\r\n    }\r\n    \r\n    ///@dev the owner announce the end of the vote \r\n    function comptageVotes() public onlyOwner rightStatus (WorkflowStatus.VotingSessionEnded) {\r\n        \r\n       sessionOver();\r\n    }\r\n    \r\n    ///@dev showing the winner details\r\n    function getWinner() public view rightStatus(WorkflowStatus.VotesTallied) returns (Proposal memory) {\r\n        \r\n        return idsProposals[winningProposalId];\r\n    }\r\n    \r\n    ///@dev showing the vote \r\n    function getVote (address _address) public view rightStatus(WorkflowStatus.VotesTallied) returns(uint){\r\n        \r\n        require(whiteList[_address].isRegistered, \"This person is not on the whitelist \");\r\n        return whiteList[_address].votedProposalId;\r\n    }\r\n}",
  "sourcePath": "C:/Users/fboud/OneDrive/Documents/Alyra/DefiAlyra/Defi_3/Dapp-SystemeDeVote3/contracts/systemeVote.sol",
  "compiler": {
    "name": "solc",
    "version": "0.7.6+commit.7338295f.Emscripten.clang"
  },
  "schemaVersion": "3.4.1",
  "updatedAt": "2021-07-17T22:12:22.942Z",
  "networkType": "ethereum",
  "devdoc": {
    "kind": "dev",
    "methods": {
      "closingProposalSession()": {
        "details": "owner closing proposal session    "
      },
      "closingVoting()": {
        "details": "closing voting session"
      },
      "comptageVotes()": {
        "details": "the owner announce the end of the vote "
      },
      "getVote(address)": {
        "details": "showing the vote "
      },
      "getWinner()": {
        "details": "showing the winner details"
      },
      "openingProposalSession()": {
        "details": "owner starting proposal session    "
      },
      "openingVoting()": {
        "details": "oppening voting session    "
      },
      "owner()": {
        "details": "Returns the address of the current owner."
      },
      "propositions(string)": {
        "details": "whiteListed addresses making proposals"
      },
      "renounceOwnership()": {
        "details": "Leaves the contract without owner. It will not be possible to call `onlyOwner` functions anymore. Can only be called by the current owner. NOTE: Renouncing ownership will leave the contract without an owner, thereby removing any functionality that is only available to the owner."
      },
      "transferOwnership(address)": {
        "details": "Transfers ownership of the contract to a new account (`newOwner`). Can only be called by the current owner."
      },
      "vote(uint256)": {
        "details": "whiteListed addresses make a unique vote and at the same time the program is counting the winning proposal    "
      },
      "whiteListed(address)": {
        "details": "owner adding whitelist address"
      }
    },
    "version": 1
  },
  "userdoc": {
    "kind": "user",
    "methods": {},
    "version": 1
  }
}