{
  "contractName": "SystemeVoteWorkflow",
  "abi": [
    {
      "anonymous": false,
      "inputs": [
        {
          "indexed": true,
          "internalType": "address",
          "name": "previousOwner",
          "type": "address"
        },
        {
          "indexed": true,
          "internalType": "address",
          "name": "newOwner",
          "type": "address"
        }
      ],
      "name": "OwnershipTransferred",
      "type": "event"
    },
    {
      "anonymous": false,
      "inputs": [
        {
          "indexed": false,
          "internalType": "uint256",
          "name": "proposalId",
          "type": "uint256"
        }
      ],
      "name": "ProposalRegistered",
      "type": "event"
    },
    {
      "anonymous": false,
      "inputs": [],
      "name": "ProposalsRegistrationEnded",
      "type": "event"
    },
    {
      "anonymous": false,
      "inputs": [],
      "name": "ProposalsRegistrationStarted",
      "type": "event"
    },
    {
      "anonymous": false,
      "inputs": [
        {
          "indexed": false,
          "internalType": "address",
          "name": "voter",
          "type": "address"
        },
        {
          "indexed": false,
          "internalType": "uint256",
          "name": "proposalId",
          "type": "uint256"
        }
      ],
      "name": "Voted",
      "type": "event"
    },
    {
      "anonymous": false,
      "inputs": [
        {
          "indexed": false,
          "internalType": "address",
          "name": "voterAddress",
          "type": "address"
        }
      ],
      "name": "VoterRegistered",
      "type": "event"
    },
    {
      "anonymous": false,
      "inputs": [],
      "name": "VotesTallied",
      "type": "event"
    },
    {
      "anonymous": false,
      "inputs": [],
      "name": "VotingSessionEnded",
      "type": "event"
    },
    {
      "anonymous": false,
      "inputs": [],
      "name": "VotingSessionStarted",
      "type": "event"
    },
    {
      "anonymous": false,
      "inputs": [
        {
          "indexed": false,
          "internalType": "enum SystemeVoteWorkflow.WorkflowStatus",
          "name": "previousStatus",
          "type": "uint8"
        },
        {
          "indexed": false,
          "internalType": "enum SystemeVoteWorkflow.WorkflowStatus",
          "name": "newStatus",
          "type": "uint8"
        }
      ],
      "name": "WorkflowStatusChange",
      "type": "event"
    },
    {
      "inputs": [],
      "name": "owner",
      "outputs": [
        {
          "internalType": "address",
          "name": "",
          "type": "address"
        }
      ],
      "stateMutability": "view",
      "type": "function"
    },
    {
      "inputs": [],
      "name": "renounceOwnership",
      "outputs": [],
      "stateMutability": "nonpayable",
      "type": "function"
    },
    {
      "inputs": [
        {
          "internalType": "address",
          "name": "newOwner",
          "type": "address"
        }
      ],
      "name": "transferOwnership",
      "outputs": [],
      "stateMutability": "nonpayable",
      "type": "function"
    },
    {
      "inputs": [],
      "name": "workflowStatus",
      "outputs": [
        {
          "internalType": "enum SystemeVoteWorkflow.WorkflowStatus",
          "name": "",
          "type": "uint8"
        }
      ],
      "stateMutability": "view",
      "type": "function"
    },
    {
      "inputs": [],
      "name": "openingProposalSession",
      "outputs": [],
      "stateMutability": "nonpayable",
      "type": "function"
    },
    {
      "inputs": [],
      "name": "closingProposalSession",
      "outputs": [],
      "stateMutability": "nonpayable",
      "type": "function"
    },
    {
      "inputs": [],
      "name": "openingVoting",
      "outputs": [],
      "stateMutability": "nonpayable",
      "type": "function"
    },
    {
      "inputs": [],
      "name": "closingVoting",
      "outputs": [],
      "stateMutability": "nonpayable",
      "type": "function"
    }
  ],
  "bytecode": "0x608060405234801561001057600080fd5b5060006100216100c460201b60201c565b9050806000806101000a81548173ffffffffffffffffffffffffffffffffffffffff021916908373ffffffffffffffffffffffffffffffffffffffff1602179055508073ffffffffffffffffffffffffffffffffffffffff16600073ffffffffffffffffffffffffffffffffffffffff167f8be0079c531659141344cd1fd0a4f28419497f9722a3daafe3b4186f6b6457e060405160405180910390a3506100cc565b600033905090565b610d6a806100db6000396000f3fe608060405234801561001057600080fd5b50600436106100885760003560e01c8063a1edffa21161005b578063a1edffa2146100df578063e1e4416b14610108578063f2fde38b14610112578063fa213ac51461015657610088565b806335c9c3e91461008d578063715018a6146100975780638da5cb5b146100a15780639f13824a146100d5575b600080fd5b610095610160565b005b61009f610363565b005b6100a96104d0565b604051808273ffffffffffffffffffffffffffffffffffffffff16815260200191505060405180910390f35b6100dd6104f9565b005b6100e76106fc565b604051808260058111156100f757fe5b815260200191505060405180910390f35b61011061070f565b005b6101546004803603602081101561012857600080fd5b81019080803573ffffffffffffffffffffffffffffffffffffffff169060200190929190505050610912565b005b61015e610b04565b005b610168610d06565b73ffffffffffffffffffffffffffffffffffffffff166101866104d0565b73ffffffffffffffffffffffffffffffffffffffff161461020f576040517f08c379a00000000000000000000000000000000000000000000000000000000081526004018080602001828103825260208152602001807f4f776e61626c653a2063616c6c6572206973206e6f7420746865206f776e657281525060200191505060405180910390fd5b600180600581111561021d57fe5b600060149054906101000a900460ff16600581111561023857fe5b146102ab576040517f08c379a000000000000000000000000000000000000000000000000000000000815260040180806020018281038252601f8152602001807f796f7520617265206e6f7420696e20746865207269676874207374617475730081525060200191505060405180910390fd5b6002600060146101000a81548160ff021916908360058111156102ca57fe5b02179055507f240cb87b2e4df4c318e72bd714d45a9cad60249e883ff56b1fffd83a4595a8fa60405160405180910390a17f0a97a4ee45751e2abf3e4fc8946939630b11b371ea8ae39ccdc3056e98f5cc3f6001600060149054906101000a900460ff166040518083600581111561033e57fe5b815260200182600581111561034f57fe5b81526020019250505060405180910390a150565b61036b610d06565b73ffffffffffffffffffffffffffffffffffffffff166103896104d0565b73ffffffffffffffffffffffffffffffffffffffff1614610412576040517f08c379a00000000000000000000000000000000000000000000000000000000081526004018080602001828103825260208152602001807f4f776e61626c653a2063616c6c6572206973206e6f7420746865206f776e657281525060200191505060405180910390fd5b600073ffffffffffffffffffffffffffffffffffffffff1660008054906101000a900473ffffffffffffffffffffffffffffffffffffffff1673ffffffffffffffffffffffffffffffffffffffff167f8be0079c531659141344cd1fd0a4f28419497f9722a3daafe3b4186f6b6457e060405160405180910390a360008060006101000a81548173ffffffffffffffffffffffffffffffffffffffff021916908373ffffffffffffffffffffffffffffffffffffffff160217905550565b60008060009054906101000a900473ffffffffffffffffffffffffffffffffffffffff16905090565b610501610d06565b73ffffffffffffffffffffffffffffffffffffffff1661051f6104d0565b73ffffffffffffffffffffffffffffffffffffffff16146105a8576040517f08c379a00000000000000000000000000000000000000000000000000000000081526004018080602001828103825260208152602001807f4f776e61626c653a2063616c6c6572206973206e6f7420746865206f776e657281525060200191505060405180910390fd5b60038060058111156105b657fe5b600060149054906101000a900460ff1660058111156105d157fe5b14610644576040517f08c379a000000000000000000000000000000000000000000000000000000000815260040180806020018281038252601f8152602001807f796f7520617265206e6f7420696e20746865207269676874207374617475730081525060200191505060405180910390fd5b6004600060146101000a81548160ff0219169083600581111561066357fe5b02179055507fc379d349a6301baf50fb2f98d829f4ae10b1cdb7c66f4e4d8117302df7b8cd4c60405160405180910390a17f0a97a4ee45751e2abf3e4fc8946939630b11b371ea8ae39ccdc3056e98f5cc3f6003600060149054906101000a900460ff16604051808360058111156106d757fe5b81526020018260058111156106e857fe5b81526020019250505060405180910390a150565b600060149054906101000a900460ff1681565b610717610d06565b73ffffffffffffffffffffffffffffffffffffffff166107356104d0565b73ffffffffffffffffffffffffffffffffffffffff16146107be576040517f08c379a00000000000000000000000000000000000000000000000000000000081526004018080602001828103825260208152602001807f4f776e61626c653a2063616c6c6572206973206e6f7420746865206f776e657281525060200191505060405180910390fd5b60028060058111156107cc57fe5b600060149054906101000a900460ff1660058111156107e757fe5b1461085a576040517f08c379a000000000000000000000000000000000000000000000000000000000815260040180806020018281038252601f8152602001807f796f7520617265206e6f7420696e20746865207269676874207374617475730081525060200191505060405180910390fd5b6003600060146101000a81548160ff0219169083600581111561087957fe5b02179055507f1b8e19a458c1bcd88553332c518cc5c4e2d5793e712ee766d4f1c14f672ef1f560405160405180910390a17f0a97a4ee45751e2abf3e4fc8946939630b11b371ea8ae39ccdc3056e98f5cc3f6002600060149054906101000a900460ff16604051808360058111156108ed57fe5b81526020018260058111156108fe57fe5b81526020019250505060405180910390a150565b61091a610d06565b73ffffffffffffffffffffffffffffffffffffffff166109386104d0565b73ffffffffffffffffffffffffffffffffffffffff16146109c1576040517f08c379a00000000000000000000000000000000000000000000000000000000081526004018080602001828103825260208152602001807f4f776e61626c653a2063616c6c6572206973206e6f7420746865206f776e657281525060200191505060405180910390fd5b600073ffffffffffffffffffffffffffffffffffffffff168173ffffffffffffffffffffffffffffffffffffffff161415610a47576040517f08c379a0000000000000000000000000000000000000000000000000000000008152600401808060200182810382526026815260200180610d0f6026913960400191505060405180910390fd5b8073ffffffffffffffffffffffffffffffffffffffff1660008054906101000a900473ffffffffffffffffffffffffffffffffffffffff1673ffffffffffffffffffffffffffffffffffffffff167f8be0079c531659141344cd1fd0a4f28419497f9722a3daafe3b4186f6b6457e060405160405180910390a3806000806101000a81548173ffffffffffffffffffffffffffffffffffffffff021916908373ffffffffffffffffffffffffffffffffffffffff16021790555050565b610b0c610d06565b73ffffffffffffffffffffffffffffffffffffffff16610b2a6104d0565b73ffffffffffffffffffffffffffffffffffffffff1614610bb3576040517f08c379a00000000000000000000000000000000000000000000000000000000081526004018080602001828103825260208152602001807f4f776e61626c653a2063616c6c6572206973206e6f7420746865206f776e657281525060200191505060405180910390fd5b6000806005811115610bc157fe5b600060149054906101000a900460ff166005811115610bdc57fe5b14610c4f576040517f08c379a000000000000000000000000000000000000000000000000000000000815260040180806020018281038252601f8152602001807f796f7520617265206e6f7420696e20746865207269676874207374617475730081525060200191505060405180910390fd5b6001600060146101000a81548160ff02191690836005811115610c6e57fe5b02179055507f344c25562921d075a298d34b6dd1fd00d36ff293974539dfd4a8c625d9f0064c60405160405180910390a17f0a97a4ee45751e2abf3e4fc8946939630b11b371ea8ae39ccdc3056e98f5cc3f60008060149054906101000a900460ff1660405180836005811115610ce157fe5b8152602001826005811115610cf257fe5b81526020019250505060405180910390a150565b60003390509056fe4f776e61626c653a206e6577206f776e657220697320746865207a65726f2061646472657373a2646970667358221220a240bd64b602c19895c5d03071244b2b8debc5bd9e0de7fd401dbd763c0e68d064736f6c63430007060033",
  "immutableReferences": {},
  "source": "// SPDX-License-Identifier: GPL-3.0\r\n\r\n/**\r\n * @title systemeVoteWorkflow.sol\r\n * @dev Le contrat permet de gerer le Workflow dans lequel se situe le vote.\r\n */\r\n \r\nimport \"@OpenZeppelin/contracts/access/Ownable.sol\";\r\n\r\npragma solidity 0.7.6;\r\ncontract SystemeVoteWorkflow is Ownable {\r\n    \r\n    WorkflowStatus public workflowStatus;\r\n\r\n        enum WorkflowStatus {\r\n            RegisteringVoters,\r\n            ProposalsRegistrationStarted,\r\n            ProposalsRegistrationEnded,\r\n            VotingSessionStarted,\r\n            VotingSessionEnded,\r\n            VotesTallied\r\n            }\r\n\r\n        event VoterRegistered(address voterAddress);\r\n        event ProposalsRegistrationStarted();\r\n        event ProposalsRegistrationEnded();\r\n        event ProposalRegistered(uint proposalId);\r\n        event VotingSessionStarted();\r\n        event VotingSessionEnded();\r\n        event Voted (address voter, uint proposalId);\r\n        event VotesTallied();\r\n        event WorkflowStatusChange(WorkflowStatus previousStatus, WorkflowStatus newStatus);\r\n        \r\n        \r\n      modifier rightStatus(WorkflowStatus _statusToCheck){\r\n        require (workflowStatus == _statusToCheck, \"you are not in the right status\");\r\n        _;\r\n    }\r\n        \r\n       \r\n    ///@dev owner starting proposal session    \r\n    function openingProposalSession () public onlyOwner rightStatus(WorkflowStatus.RegisteringVoters){\r\n        \r\n        workflowStatus = WorkflowStatus.ProposalsRegistrationStarted;\r\n        emit ProposalsRegistrationStarted();\r\n        emit WorkflowStatusChange (WorkflowStatus.RegisteringVoters, workflowStatus);\r\n    }\r\n    \r\n\r\n    ///@dev owner closing proposal session    \r\n    function closingProposalSession () public  onlyOwner rightStatus(WorkflowStatus.ProposalsRegistrationStarted){\r\n        \r\n        workflowStatus = WorkflowStatus.ProposalsRegistrationEnded;\r\n        emit ProposalsRegistrationEnded();\r\n        emit WorkflowStatusChange (WorkflowStatus.ProposalsRegistrationStarted, workflowStatus);\r\n    }\r\n\r\n    ///@dev oppening voting session    \r\n    function openingVoting () public  onlyOwner rightStatus(WorkflowStatus.ProposalsRegistrationEnded){\r\n        \r\n        workflowStatus = WorkflowStatus.VotingSessionStarted;\r\n        emit VotingSessionStarted();\r\n        emit WorkflowStatusChange (WorkflowStatus.ProposalsRegistrationEnded, workflowStatus);\r\n    }\r\n    \r\n    ///@dev closing voting session\r\n    function closingVoting () public onlyOwner rightStatus(WorkflowStatus.VotingSessionStarted){\r\n        \r\n        workflowStatus = WorkflowStatus.VotingSessionEnded;\r\n         emit VotingSessionEnded();\r\n         emit WorkflowStatusChange (WorkflowStatus.VotingSessionStarted, workflowStatus);\r\n    }\r\n\r\n \r\n    ///@dev ending session    \r\n    function sessionOver() internal onlyOwner rightStatus(WorkflowStatus.VotingSessionEnded) {\r\n        \r\n        workflowStatus = WorkflowStatus.VotesTallied;\r\n         emit VotesTallied();\r\n         emit WorkflowStatusChange (WorkflowStatus.VotingSessionEnded, workflowStatus);\r\n    }\r\n}",
  "sourcePath": "C:\\Users\\fboud\\OneDrive\\Documents\\Alyra\\DefiAlyra\\Defi_3\\Dapp-SystemeDeVote3\\contracts\\systemeVoteWorkflow.sol",
  "compiler": {
    "name": "solc",
    "version": "0.7.6+commit.7338295f.Emscripten.clang"
  },
  "schemaVersion": "3.4.1",
  "updatedAt": "2021-07-17T21:34:58.056Z",
  "devdoc": {
    "kind": "dev",
    "methods": {
      "closingProposalSession()": {
        "details": "owner closing proposal session    "
      },
      "closingVoting()": {
        "details": "closing voting session"
      },
      "openingProposalSession()": {
        "details": "owner starting proposal session    "
      },
      "openingVoting()": {
        "details": "oppening voting session    "
      },
      "owner()": {
        "details": "Returns the address of the current owner."
      },
      "renounceOwnership()": {
        "details": "Leaves the contract without owner. It will not be possible to call `onlyOwner` functions anymore. Can only be called by the current owner. NOTE: Renouncing ownership will leave the contract without an owner, thereby removing any functionality that is only available to the owner."
      },
      "transferOwnership(address)": {
        "details": "Transfers ownership of the contract to a new account (`newOwner`). Can only be called by the current owner."
      }
    },
    "version": 1
  },
  "userdoc": {
    "kind": "user",
    "methods": {},
    "version": 1
  }
}